{
	"data": {
		"bytecode": {
			"linkReferences": {},
			"object": "6080604052348015600e575f80fd5b5060405161022a38038061022a8339818101604052810190602e91906085565b60015f806101000a81548160ff021916908315150217905550806001819055505060ab565b5f80fd5b5f819050919050565b6067816057565b81146070575f80fd5b50565b5f81519050607f816060565b92915050565b5f6020828403121560975760966053565b5b5f60a2848285016073565b91505092915050565b610172806100b85f395ff3fe608060405234801561000f575f80fd5b5060043610610034575f3560e01c8063cf30901214610038578063ec9b5b3a14610056575b5f80fd5b610040610072565b60405161004d91906100c1565b60405180910390f35b610070600480360381019061006b9190610111565b610082565b005b5f8054906101000a900460ff1681565b80600154036100a4575f805f6101000a81548160ff0219169083151502179055505b50565b5f8115159050919050565b6100bb816100a7565b82525050565b5f6020820190506100d45f8301846100b2565b92915050565b5f80fd5b5f819050919050565b6100f0816100de565b81146100fa575f80fd5b50565b5f8135905061010b816100e7565b92915050565b5f60208284031215610126576101256100da565b5b5f610133848285016100fd565b9150509291505056fea2646970667358221220f6199c8a00342b181600075b43b6173f0e001a922788c9c1b87d4aef0021938664736f6c634300081a0033",
			"opcodes": "PUSH1 0x80 PUSH1 0x40 MSTORE CALLVALUE DUP1 ISZERO PUSH1 0xE JUMPI PUSH0 DUP1 REVERT JUMPDEST POP PUSH1 0x40 MLOAD PUSH2 0x22A CODESIZE SUB DUP1 PUSH2 0x22A DUP4 CODECOPY DUP2 DUP2 ADD PUSH1 0x40 MSTORE DUP2 ADD SWAP1 PUSH1 0x2E SWAP2 SWAP1 PUSH1 0x85 JUMP JUMPDEST PUSH1 0x1 PUSH0 DUP1 PUSH2 0x100 EXP DUP2 SLOAD DUP2 PUSH1 0xFF MUL NOT AND SWAP1 DUP4 ISZERO ISZERO MUL OR SWAP1 SSTORE POP DUP1 PUSH1 0x1 DUP2 SWAP1 SSTORE POP POP PUSH1 0xAB JUMP JUMPDEST PUSH0 DUP1 REVERT JUMPDEST PUSH0 DUP2 SWAP1 POP SWAP2 SWAP1 POP JUMP JUMPDEST PUSH1 0x67 DUP2 PUSH1 0x57 JUMP JUMPDEST DUP2 EQ PUSH1 0x70 JUMPI PUSH0 DUP1 REVERT JUMPDEST POP JUMP JUMPDEST PUSH0 DUP2 MLOAD SWAP1 POP PUSH1 0x7F DUP2 PUSH1 0x60 JUMP JUMPDEST SWAP3 SWAP2 POP POP JUMP JUMPDEST PUSH0 PUSH1 0x20 DUP3 DUP5 SUB SLT ISZERO PUSH1 0x97 JUMPI PUSH1 0x96 PUSH1 0x53 JUMP JUMPDEST JUMPDEST PUSH0 PUSH1 0xA2 DUP5 DUP3 DUP6 ADD PUSH1 0x73 JUMP JUMPDEST SWAP2 POP POP SWAP3 SWAP2 POP POP JUMP JUMPDEST PUSH2 0x172 DUP1 PUSH2 0xB8 PUSH0 CODECOPY PUSH0 RETURN INVALID PUSH1 0x80 PUSH1 0x40 MSTORE CALLVALUE DUP1 ISZERO PUSH2 0xF JUMPI PUSH0 DUP1 REVERT JUMPDEST POP PUSH1 0x4 CALLDATASIZE LT PUSH2 0x34 JUMPI PUSH0 CALLDATALOAD PUSH1 0xE0 SHR DUP1 PUSH4 0xCF309012 EQ PUSH2 0x38 JUMPI DUP1 PUSH4 0xEC9B5B3A EQ PUSH2 0x56 JUMPI JUMPDEST PUSH0 DUP1 REVERT JUMPDEST PUSH2 0x40 PUSH2 0x72 JUMP JUMPDEST PUSH1 0x40 MLOAD PUSH2 0x4D SWAP2 SWAP1 PUSH2 0xC1 JUMP JUMPDEST PUSH1 0x40 MLOAD DUP1 SWAP2 SUB SWAP1 RETURN JUMPDEST PUSH2 0x70 PUSH1 0x4 DUP1 CALLDATASIZE SUB DUP2 ADD SWAP1 PUSH2 0x6B SWAP2 SWAP1 PUSH2 0x111 JUMP JUMPDEST PUSH2 0x82 JUMP JUMPDEST STOP JUMPDEST PUSH0 DUP1 SLOAD SWAP1 PUSH2 0x100 EXP SWAP1 DIV PUSH1 0xFF AND DUP2 JUMP JUMPDEST DUP1 PUSH1 0x1 SLOAD SUB PUSH2 0xA4 JUMPI PUSH0 DUP1 PUSH0 PUSH2 0x100 EXP DUP2 SLOAD DUP2 PUSH1 0xFF MUL NOT AND SWAP1 DUP4 ISZERO ISZERO MUL OR SWAP1 SSTORE POP JUMPDEST POP JUMP JUMPDEST PUSH0 DUP2 ISZERO ISZERO SWAP1 POP SWAP2 SWAP1 POP JUMP JUMPDEST PUSH2 0xBB DUP2 PUSH2 0xA7 JUMP JUMPDEST DUP3 MSTORE POP POP JUMP JUMPDEST PUSH0 PUSH1 0x20 DUP3 ADD SWAP1 POP PUSH2 0xD4 PUSH0 DUP4 ADD DUP5 PUSH2 0xB2 JUMP JUMPDEST SWAP3 SWAP2 POP POP JUMP JUMPDEST PUSH0 DUP1 REVERT JUMPDEST PUSH0 DUP2 SWAP1 POP SWAP2 SWAP1 POP JUMP JUMPDEST PUSH2 0xF0 DUP2 PUSH2 0xDE JUMP JUMPDEST DUP2 EQ PUSH2 0xFA JUMPI PUSH0 DUP1 REVERT JUMPDEST POP JUMP JUMPDEST PUSH0 DUP2 CALLDATALOAD SWAP1 POP PUSH2 0x10B DUP2 PUSH2 0xE7 JUMP JUMPDEST SWAP3 SWAP2 POP POP JUMP JUMPDEST PUSH0 PUSH1 0x20 DUP3 DUP5 SUB SLT ISZERO PUSH2 0x126 JUMPI PUSH2 0x125 PUSH2 0xDA JUMP JUMPDEST JUMPDEST PUSH0 PUSH2 0x133 DUP5 DUP3 DUP6 ADD PUSH2 0xFD JUMP JUMPDEST SWAP2 POP POP SWAP3 SWAP2 POP POP JUMP INVALID LOG2 PUSH5 0x6970667358 0x22 SLT KECCAK256 0xF6 NOT SWAP13 DUP11 STOP CALLVALUE 0x2B XOR AND STOP SMOD JUMPDEST NUMBER 0xB6 OR EXTCODEHASH 0xE STOP BYTE SWAP3 0x27 DUP9 0xC9 0xC1 0xB8 PUSH30 0x4AEF0021938664736F6C634300081A003300000000000000000000000000 "
		},
		"gasEstimates": {
			"creation": {
				"codeDepositCost": "74000",
				"executionCost": "infinite",
				"totalCost": "infinite"
			},
			"external": {
				"locked()": "2441",
				"unlock(bytes32)": "26789"
			}
		},
		"methodIdentifiers": {
			"locked()": "cf309012",
			"unlock(bytes32)": "ec9b5b3a"
		}
	},
	"abi": [
		{
			"inputs": [
				{
					"internalType": "bytes32",
					"name": "_password",
					"type": "bytes32"
				}
			],
			"stateMutability": "nonpayable",
			"type": "constructor"
		},
		{
			"inputs": [],
			"name": "locked",
			"outputs": [
				{
					"internalType": "bool",
					"name": "",
					"type": "bool"
				}
			],
			"stateMutability": "view",
			"type": "function"
		},
		{
			"inputs": [
				{
					"internalType": "bytes32",
					"name": "_password",
					"type": "bytes32"
				}
			],
			"name": "unlock",
			"outputs": [],
			"stateMutability": "nonpayable",
			"type": "function"
		}
	]
}